:100000000C945D000C9485000C9485000C94850084
:100010000C9485000C9485000C9485000C9485004C
:100020000C9485000C9485000C9485000C941802A7
:100030000C9485000C9485000C9485000C9485002C
:100040000C94CE010C9485000C9485000C948500D2
:100050000C9485000C9485000C9485000C9485000C
:100060000C9485000C9485000000000024002700FB
:100070002A0000000000250028002B0004040404CE
:100080000404040402020202020203030303030342
:10009000010204081020408001020408102001021F
:1000A00004081020000000080002010000030407FB
:1000B0000000000000000000940311241FBECFEFD9
:1000C000D8E0DEBFCDBF21E0A4E0B1E001C01D92C9
:1000D000AD33B207E1F711E0A0E0B1E0E4E8F8E009
:1000E00002C005900D92A430B107D9F710E0CDE51C
:1000F000D0E004C02197FE010E94D703CC35D10780
:10010000C9F70E94D9020C9440040C94000090E0BE
:10011000FC01EC55FF4F3491FC01E057FF4F249157
:10012000FC01E458FF4FE491EE2309F43BC0332374
:1001300039F1333091F038F43130A9F0323001F533
:1001400084B58F7D12C0373091F03830A1F0343053
:10015000B9F4809180008F7D03C0809180008F77FB
:10016000809380000DC084B58F7784BD09C08091D5
:10017000B0008F7703C08091B0008F7D8093B00076
:10018000F0E0EE0FFF1FEE58FF4FA591B4918FB72F
:10019000F894EC91611103C020952E2301C02E2B01
:1001A0002C938FBF0895CF92DF92EF92FF92CF935F
:1001B000DF93EC01603282E078070CF03DC077FD00
:1001C00006C0653B71052CF064EB70E002C060E096
:1001D00070E0898128E830E06901C81AD10887FDFC
:1001E000D394CC0CDD1CCC0CDD1C0D2C000CEE08CB
:1001F000FF088A8128E532E0281B310987FD339505
:10020000220F331F220F331FC901330FAA0BBB0B61
:100210009C01AD012C193D094E095F09DB010E94CB
:10022000070424EB30E040E050E00E94DD03C20E02
:10023000D31EE41EF51EB60188818C3080F59981AD
:1002400048E850E0491B510997FD5395440F551F4D
:10025000440F551F6417750784F09A8128E532E032
:10026000291B310997FD3395220F331F220F331FAE
:10027000AB01261737070CF4A90142505109440F6E
:10028000551F2FB7F89490E0FC01EE0FFF1F8E0F63
:100290009F1FFC01EA5FFE4F528341832FBFDF9116
:1002A000CF91FF90EF90DF90CF900895CF93DF93A1
:1002B000DC018C918C3008F06DC09B013327F90173
:1002C000E057FF4F8491F901E458FF4F2491222316
:1002D00099F030E0220F331FF901E859FF4FC59123
:1002E000D491F901EE58FF4F259134919FB7F894BE
:1002F000E881E82BE8839FBF8C91E82FF0E09F0115
:10030000220F331FE20FF31FEA5FFE4F6F739081DE
:10031000907C692B608311961C92119712961C9207
:1003200012976CE00E94CB039CE0899FB0011124DE
:1003300040E050E09A01260F371FF901EE0FFF1F32
:100340002E0F3F1FF901EA5FFE4F908196FD16C008
:100350004F5F5F4F4C30510569F781110FC010920C
:10036000800082E0809381001092850010928400CA
:10037000B19A80916F00826080936F00EC91F0E001
:10038000CF01880F991FE80FF91FEA5FFE4F8081A8
:10039000806480838C91DF91CF9108951F920F929A
:1003A0000FB60F9211242F933F938F939F93AF9388
:1003B000BF938091390190913A01A0913B01B09196
:1003C0003C013091380123E0230F2D3720F40196B2
:1003D000A11DB11D05C026E8230F0296A11DB11D68
:1003E000209338018093390190933A01A0933B0107
:1003F000B0933C018091340190913501A091360178
:10040000B09137010196A11DB11D809334019093E5
:100410003501A0933601B0933701BF91AF919F9101
:100420008F913F912F910F900FBE0F901F901895B5
:100430001F920F920FB60F9211242F933F934F9359
:100440005F936F937F938F939F93AF93BF93EF933C
:10045000FF938091050187FF05C0109285001092DF
:1004600084001BC020910501022E000C330B8091EB
:10047000040190E02817390784F480910501082EC3
:10048000000C990BFC01EE0FFF1F8E0F9F1FFC014C
:10049000EA5FFE4F808186FD15C0809105018F5F68
:1004A0008093050120910501022E000C330B8091F1
:1004B000040190E028173907C4F4809105018C30BD
:1004C00064F113C080910501082E000C990BFC010A
:1004D000EE0FFF1F8E0F9F1FFC01EA5FFE4F808112
:1004E00060E08F730E948700D8CF80918400909144
:1004F0008500049680349C4918F480E49CE905C08A
:100500008091840090918500049690938900809357
:1005100088008FEF809305013BC0209184003091CB
:10052000850080910501082E000C990BFC01EE0F4F
:10053000FF1F8E0F9F1FFC01EA5FFE4F818192819A
:10054000820F931F9093890080938800809105010A
:10055000082E000C990BFC01EE0FFF1F8E0F9F1F42
:10056000FC01EA5FFE4F808186FF12C08091050189
:10057000082E000C990BFC01EE0FFF1F8E0F9F1F22
:10058000FC01EA5FFE4F808161E08F730E9487006B
:10059000FF91EF91BF91AF919F918F917F916F915B
:1005A0005F914F913F912F910F900FBE0F901F9031
:1005B0001895789484B5826084BD84B5816084BDCB
:1005C00085B5826085BD85B5816085BD80916E00F1
:1005D000816080936E001092810080918100826022
:1005E000809381008091810081608093810080915F
:1005F00080008160809380008091B100846080934E
:10060000B1008091B00081608093B00080917A0049
:10061000846080937A0080917A00826080937A006F
:1006200080917A00816080937A0080917A0080685E
:1006300080937A001092C10069E070E08AE291E054
:100640000E9456016AE070E08DE291E00E9456013E
:1006500060E070E08DE291E00E94D30060E070E025
:100660008AE291E00E94D30080E0E82E80E0F82E3C
:100670008091320190913301892B39F560913001DD
:10068000709131018DE291E00E94D300109233010C
:1006900010923201C0913201D0913301C43BD10597
:1006A0005CF4BE018AE291E00E94D3002196D093CF
:1006B0003301C0933201EECF80913001909131012E
:1006C00001969093310180933001C0913201D09115
:1006D0003301C43BD10509F500913001109131017E
:1006E000B8018DE291E00E94D300D0933301C09312
:1006F0003201C0913201D09133011C161D063CF429
:10070000BE018AE291E00E94D3002197EECF0F5FF5
:100710001F4F1093310100933001E114F10409F4EB
:10072000A7CF0E940000A4CF809104018C30A0F4D8
:1007300091E0980F9093040180932D0190E0FC01CB
:10074000EE0FFF1F8E0F9F1FFC01EA5FFE4F88EB2D
:100750009BE09283818303C08FEF80932D01809172
:1007600004018C30A0F491E0980F909304018093E1
:100770002A0190E0FC01EE0FFF1F8E0F9F1FFC016E
:10078000EA5FFE4F88EB9BE09283818308958FEFB1
:1007900080932A010895991B79E004C0991F961748
:1007A00008F0961B881F7A95C9F780950895EE0F7B
:1007B000FF1F0590F491E02D0994052E97FB1EF480
:1007C00000940E94F40357FD07D00E940F0407FC19
:1007D00003D04EF40C94F403509540953095219538
:1007E0003F4F4F4F5F4F089590958095709561955D
:1007F0007F4F8F4F9F4F08950E943104A59F900D0A
:10080000B49F900DA49F800D911D11240895B7FFF2
:100810000C94FC030E94FC03821B930B0895A1E23D
:100820001A2EAA1BBB1BFD010DC0AA1FBB1FEE1F6A
:10083000FF1FA217B307E407F50720F0A21BB30BB5
:10084000E40BF50B661F771F881F991F1A9469F731
:1008500060957095809590959B01AC01BD01CF018D
:100860000895A29FB001B39FC001A39F700D811D89
:100870001124911DB29F700D811D1124911D0895A9
:04088000F894FFCF1A
:04088400010000006F
:00000001FF
